{
  "_format": "hh-sol-artifact-1",
  "contractName": "BondzierFactory",
  "sourceName": "contracts/BondzierFactory.sol",
  "abi": [
    {
      "inputs": [
        {
          "internalType": "address",
          "name": "_bondzierContractAddress",
          "type": "address"
        },
        {
          "internalType": "address",
          "name": "_tokenContractAddress",
          "type": "address"
        }
      ],
      "stateMutability": "nonpayable",
      "type": "constructor"
    },
    {
      "anonymous": false,
      "inputs": [
        {
          "indexed": false,
          "internalType": "address",
          "name": "newBondzierAddress",
          "type": "address"
        }
      ],
      "name": "BondzierCreated",
      "type": "event"
    },
    {
      "inputs": [],
      "name": "allContractsLength",
      "outputs": [
        {
          "internalType": "uint256",
          "name": "",
          "type": "uint256"
        }
      ],
      "stateMutability": "view",
      "type": "function"
    },
    {
      "inputs": [],
      "name": "bondzierContractAddress",
      "outputs": [
        {
          "internalType": "address",
          "name": "",
          "type": "address"
        }
      ],
      "stateMutability": "view",
      "type": "function"
    },
    {
      "inputs": [
        {
          "internalType": "uint256",
          "name": "",
          "type": "uint256"
        }
      ],
      "name": "contracts",
      "outputs": [
        {
          "internalType": "address",
          "name": "",
          "type": "address"
        }
      ],
      "stateMutability": "view",
      "type": "function"
    },
    {
      "inputs": [
        {
          "internalType": "bool",
          "name": "_isNonFungible",
          "type": "bool"
        },
        {
          "internalType": "uint256",
          "name": "_amnt",
          "type": "uint256"
        },
        {
          "internalType": "uint256",
          "name": "_total",
          "type": "uint256"
        },
        {
          "internalType": "uint256[6]",
          "name": "_points",
          "type": "uint256[6]"
        },
        {
          "internalType": "address",
          "name": "_owneraddress",
          "type": "address"
        },
        {
          "internalType": "uint256",
          "name": "_endTime",
          "type": "uint256"
        },
        {
          "internalType": "string",
          "name": "_uri",
          "type": "string"
        },
        {
          "internalType": "bytes32",
          "name": "_salt",
          "type": "bytes32"
        },
        {
          "internalType": "bytes",
          "name": "data",
          "type": "bytes"
        }
      ],
      "name": "createBondzier",
      "outputs": [
        {
          "internalType": "address",
          "name": "",
          "type": "address"
        }
      ],
      "stateMutability": "nonpayable",
      "type": "function"
    },
    {
      "inputs": [],
      "name": "nonce",
      "outputs": [
        {
          "internalType": "uint128",
          "name": "",
          "type": "uint128"
        }
      ],
      "stateMutability": "view",
      "type": "function"
    },
    {
      "inputs": [
        {
          "internalType": "bytes32",
          "name": "_salt",
          "type": "bytes32"
        }
      ],
      "name": "predictAddress",
      "outputs": [
        {
          "internalType": "address",
          "name": "",
          "type": "address"
        }
      ],
      "stateMutability": "view",
      "type": "function"
    },
    {
      "inputs": [],
      "name": "tokenContractAddress",
      "outputs": [
        {
          "internalType": "address",
          "name": "",
          "type": "address"
        }
      ],
      "stateMutability": "view",
      "type": "function"
    }
  ],
  "bytecode": "0x60806040526000600360006101000a8154816fffffffffffffffffffffffffffffffff02191690836fffffffffffffffffffffffffffffffff1602179055503480156200004b57600080fd5b506040516200155e3803806200155e83398181016040528101906200007191906200025a565b600073ffffffffffffffffffffffffffffffffffffffff168173ffffffffffffffffffffffffffffffffffffffff161415620000e4576040517f08c379a0000000000000000000000000000000000000000000000000000000008152600401620000db90620002e9565b60405180910390fd5b600073ffffffffffffffffffffffffffffffffffffffff168273ffffffffffffffffffffffffffffffffffffffff16141562000157576040517f08c379a00000000000000000000000000000000000000000000000000000000081526004016200014e906200030b565b60405180910390fd5b816000806101000a81548173ffffffffffffffffffffffffffffffffffffffff021916908373ffffffffffffffffffffffffffffffffffffffff16021790555080600160006101000a81548173ffffffffffffffffffffffffffffffffffffffff021916908373ffffffffffffffffffffffffffffffffffffffff160217905550600160009054906101000a900473ffffffffffffffffffffffffffffffffffffffff16600460006101000a81548173ffffffffffffffffffffffffffffffffffffffff021916908373ffffffffffffffffffffffffffffffffffffffff16021790555050506200042a565b600081519050620002548162000410565b92915050565b600080604083850312156200026e57600080fd5b60006200027e8582860162000243565b9250506020620002918582860162000243565b9150509250929050565b6000620002aa6028836200032d565b9150620002b78262000372565b604082019050919050565b6000620002d1602b836200032d565b9150620002de82620003c1565b604082019050919050565b6000602082019050818103600083015262000304816200029b565b9050919050565b600060208201905081810360008301526200032681620002c2565b9050919050565b600082825260208201905092915050565b60006200034b8262000352565b9050919050565b600073ffffffffffffffffffffffffffffffffffffffff82169050919050565b7f546f6b656e20636f6e74726163742061646472657373206d757374206265206e60008201527f6f6e2d7a65726f2e000000000000000000000000000000000000000000000000602082015250565b7f426f6e647a69657220636f6e74726163742061646472657373206d757374206260008201527f65206e6f6e2d7a65726f2e000000000000000000000000000000000000000000602082015250565b6200041b816200033e565b81146200042757600080fd5b50565b611124806200043a6000396000f3fe608060405234801561001057600080fd5b506004361061007d5760003560e01c806382edaf941161005b57806382edaf94146100ee5780639c76b6541461010c578063affed0e01461013c578063d9e1bcc71461015a5761007d565b8063474da79a146100825780635067e5b6146100b2578063677132db146100d0575b600080fd5b61009c60048036038101906100979190610a57565b61018a565b6040516100a99190610c01565b60405180910390f35b6100ba6101c9565b6040516100c79190610d7d565b60405180910390f35b6100d86101d6565b6040516100e59190610c01565b60405180910390f35b6100f66101fa565b6040516101039190610c01565b60405180910390f35b61012660048036038101906101219190610a2e565b610220565b6040516101339190610c01565b60405180910390f35b610144610253565b6040516101519190610cb5565b60405180910390f35b610174600480360381019061016f9190610934565b610275565b6040516101819190610c01565b60405180910390f35b6002818154811061019a57600080fd5b906000526020600020016000915054906101000a900473ffffffffffffffffffffffffffffffffffffffff1681565b6000600280549050905090565b60008054906101000a900473ffffffffffffffffffffffffffffffffffffffff1681565b600160009054906101000a900473ffffffffffffffffffffffffffffffffffffffff1681565b600061024c60008054906101000a900473ffffffffffffffffffffffffffffffffffffffff16836105dc565b9050919050565b600360009054906101000a90046fffffffffffffffffffffffffffffffff1681565b600063610f026042106102bd576040517f08c379a00000000000000000000000000000000000000000000000000000000081526004016102b490610c95565b60405180910390fd5b60003073ffffffffffffffffffffffffffffffffffffffff16639c76b654856040518263ffffffff1660e01b81526004016102f89190610c1c565b60206040518083038186803b15801561031057600080fd5b505afa158015610324573d6000803e3d6000fd5b505050506040513d601f19601f82011682018060405250810190610348919061090b565b90506000600360009054906101000a90046fffffffffffffffffffffffffffffffff1690506001600360008282829054906101000a90046fffffffffffffffffffffffffffffffff1661039b9190610eaa565b92506101000a8154816fffffffffffffffffffffffffffffffff02191690836fffffffffffffffffffffffffffffffff1602179055506002829080600181540180825580915050600190039060005260206000200160009091909190916101000a81548173ffffffffffffffffffffffffffffffffffffffff021916908373ffffffffffffffffffffffffffffffffffffffff1602179055507f9c99272b2d9a9151f557a68ebae909e7f5304726636b0fbc6d697d4287369c5b826040516104639190610c01565b60405180910390a1600460009054906101000a900473ffffffffffffffffffffffffffffffffffffffff1673ffffffffffffffffffffffffffffffffffffffff1663b8ce91278784846040518463ffffffff1660e01b81526004016104ca93929190610c37565b600060405180830381600087803b1580156104e457600080fd5b505af11580156104f8573d6000803e3d6000fd5b50505050600061052860008054906101000a900473ffffffffffffffffffffffffffffffffffffffff16876105f1565b90508273ffffffffffffffffffffffffffffffffffffffff16637856b76f838f8f8f8f8f8f8f600160009054906101000a900473ffffffffffffffffffffffffffffffffffffffff168f6040518b63ffffffff1660e01b81526004016105979a99989796959493929190610cd0565b600060405180830381600087803b1580156105b157600080fd5b505af11580156105c5573d6000803e3d6000fd5b505050508093505050509998505050505050505050565b60006105e98383306106c8565b905092915050565b60006040517f3d602d80600a3d3981f3363d3d373d3d3d363d7300000000000000000000000081528360601b60148201527f5af43d82803e903d91602b57fd5bf300000000000000000000000000000000006028820152826037826000f5915050600073ffffffffffffffffffffffffffffffffffffffff168173ffffffffffffffffffffffffffffffffffffffff1614156106c2576040517f08c379a00000000000000000000000000000000000000000000000000000000081526004016106b990610c75565b60405180910390fd5b92915050565b60006040517f3d602d80600a3d3981f3363d3d373d3d3d363d7300000000000000000000000081528460601b60148201527f5af43d82803e903d91602b57fd5bf3ff0000000000000000000000000000000060288201528260601b603882015283604c82015260378120606c820152605560378201209150509392505050565b600061075b61075684610dbd565b610d98565b9050808285602086028201111561077157600080fd5b60005b858110156107a1578161078788826108f6565b845260208401935060208301925050600181019050610774565b5050509392505050565b60006107be6107b984610de3565b610d98565b9050828152602081018484840111156107d657600080fd5b6107e1848285610f5e565b509392505050565b60006107fc6107f784610e14565b610d98565b90508281526020810184848401111561081457600080fd5b61081f848285610f5e565b509392505050565b60008135905061083681611092565b92915050565b60008151905061084b81611092565b92915050565b600082601f83011261086257600080fd5b600661086f848285610748565b91505092915050565b600081359050610887816110a9565b92915050565b60008135905061089c816110c0565b92915050565b600082601f8301126108b357600080fd5b81356108c38482602086016107ab565b91505092915050565b600082601f8301126108dd57600080fd5b81356108ed8482602086016107e9565b91505092915050565b600081359050610905816110d7565b92915050565b60006020828403121561091d57600080fd5b600061092b8482850161083c565b91505092915050565b60008060008060008060008060006101c08a8c03121561095357600080fd5b60006109618c828d01610878565b99505060206109728c828d016108f6565b98505060406109838c828d016108f6565b97505060606109948c828d01610851565b9650506101206109a68c828d01610827565b9550506101406109b88c828d016108f6565b9450506101608a013567ffffffffffffffff8111156109d657600080fd5b6109e28c828d016108cc565b9350506101806109f48c828d0161088d565b9250506101a08a013567ffffffffffffffff811115610a1257600080fd5b610a1e8c828d016108a2565b9150509295985092959850929598565b600060208284031215610a4057600080fd5b6000610a4e8482850161088d565b91505092915050565b600060208284031215610a6957600080fd5b6000610a77848285016108f6565b91505092915050565b6000610a8c8383610be3565b60208301905092915050565b610aa181610ef0565b82525050565b610ab081610e4f565b610aba8184610e7d565b9250610ac582610e45565b8060005b83811015610af6578151610add8782610a80565b9650610ae883610e70565b925050600181019050610ac9565b505050505050565b610b0781610f02565b82525050565b610b1681610f0e565b82525050565b6000610b2782610e5a565b610b318185610e88565b9350610b41818560208601610f6d565b610b4a8161102f565b840191505092915050565b6000610b6082610e65565b610b6a8185610e99565b9350610b7a818560208601610f6d565b610b838161102f565b840191505092915050565b6000610b9b601783610e99565b9150610ba682611040565b602082019050919050565b6000610bbe600183610e99565b9150610bc982611069565b602082019050919050565b610bdd81610f18565b82525050565b610bec81610f54565b82525050565b610bfb81610f54565b82525050565b6000602082019050610c166000830184610a98565b92915050565b6000602082019050610c316000830184610b0d565b92915050565b60006060820190508181036000830152610c518186610b55565b9050610c606020830185610a98565b610c6d6040830184610bd4565b949350505050565b60006020820190508181036000830152610c8e81610b8e565b9050919050565b60006020820190508181036000830152610cae81610bb1565b9050919050565b6000602082019050610cca6000830184610bd4565b92915050565b60006101e082019050610ce6600083018d610bd4565b610cf3602083018c610afe565b610d00604083018b610bf2565b610d0d606083018a610bf2565b610d1a6080830189610aa7565b610d28610140830188610a98565b610d36610160830187610bf2565b818103610180830152610d498186610b55565b9050610d596101a0830185610a98565b8181036101c0830152610d6c8184610b1c565b90509b9a5050505050505050505050565b6000602082019050610d926000830184610bf2565b92915050565b6000610da2610db3565b9050610dae8282610fa0565b919050565b6000604051905090565b600067ffffffffffffffff821115610dd857610dd7611000565b5b602082029050919050565b600067ffffffffffffffff821115610dfe57610dfd611000565b5b610e078261102f565b9050602081019050919050565b600067ffffffffffffffff821115610e2f57610e2e611000565b5b610e388261102f565b9050602081019050919050565b6000819050919050565b600060069050919050565b600081519050919050565b600081519050919050565b6000602082019050919050565b600081905092915050565b600082825260208201905092915050565b600082825260208201905092915050565b6000610eb582610f18565b9150610ec083610f18565b9250826fffffffffffffffffffffffffffffffff03821115610ee557610ee4610fd1565b5b828201905092915050565b6000610efb82610f34565b9050919050565b60008115159050919050565b6000819050919050565b60006fffffffffffffffffffffffffffffffff82169050919050565b600073ffffffffffffffffffffffffffffffffffffffff82169050919050565b6000819050919050565b82818337600083830152505050565b60005b83811015610f8b578082015181840152602081019050610f70565b83811115610f9a576000848401525b50505050565b610fa98261102f565b810181811067ffffffffffffffff82111715610fc857610fc7611000565b5b80604052505050565b7f4e487b7100000000000000000000000000000000000000000000000000000000600052601160045260246000fd5b7f4e487b7100000000000000000000000000000000000000000000000000000000600052604160045260246000fd5b6000601f19601f8301169050919050565b7f455243313136373a2063726561746532206661696c6564000000000000000000600082015250565b7f2e00000000000000000000000000000000000000000000000000000000000000600082015250565b61109b81610ef0565b81146110a657600080fd5b50565b6110b281610f02565b81146110bd57600080fd5b50565b6110c981610f0e565b81146110d457600080fd5b50565b6110e081610f54565b81146110eb57600080fd5b5056fea26469706673582212202cf19c58bf80d6ce94c625fd9b8e0668e22bb174d72f077f413c83dc5b75b4f764736f6c63430008040033",
  "linkReferences": {},
  "deployedLinkReferences": {}
}