{
  "_format": "hh-sol-artifact-1",
  "contractName": "Bondzier1155",
  "sourceName": "contracts/Bondzier1155.sol",
  "abi": [
    {
      "inputs": [
        {
          "internalType": "string",
          "name": "uri",
          "type": "string"
        }
      ],
      "stateMutability": "nonpayable",
      "type": "constructor"
    },
    {
      "anonymous": false,
      "inputs": [
        {
          "indexed": true,
          "internalType": "address",
          "name": "account",
          "type": "address"
        },
        {
          "indexed": true,
          "internalType": "address",
          "name": "operator",
          "type": "address"
        },
        {
          "indexed": false,
          "internalType": "bool",
          "name": "approved",
          "type": "bool"
        }
      ],
      "name": "ApprovalForAll",
      "type": "event"
    },
    {
      "anonymous": false,
      "inputs": [
        {
          "indexed": true,
          "internalType": "bytes32",
          "name": "role",
          "type": "bytes32"
        },
        {
          "indexed": true,
          "internalType": "bytes32",
          "name": "previousAdminRole",
          "type": "bytes32"
        },
        {
          "indexed": true,
          "internalType": "bytes32",
          "name": "newAdminRole",
          "type": "bytes32"
        }
      ],
      "name": "RoleAdminChanged",
      "type": "event"
    },
    {
      "anonymous": false,
      "inputs": [
        {
          "indexed": true,
          "internalType": "bytes32",
          "name": "role",
          "type": "bytes32"
        },
        {
          "indexed": true,
          "internalType": "address",
          "name": "account",
          "type": "address"
        },
        {
          "indexed": true,
          "internalType": "address",
          "name": "sender",
          "type": "address"
        }
      ],
      "name": "RoleGranted",
      "type": "event"
    },
    {
      "anonymous": false,
      "inputs": [
        {
          "indexed": true,
          "internalType": "bytes32",
          "name": "role",
          "type": "bytes32"
        },
        {
          "indexed": true,
          "internalType": "address",
          "name": "account",
          "type": "address"
        },
        {
          "indexed": true,
          "internalType": "address",
          "name": "sender",
          "type": "address"
        }
      ],
      "name": "RoleRevoked",
      "type": "event"
    },
    {
      "anonymous": false,
      "inputs": [
        {
          "indexed": true,
          "internalType": "address",
          "name": "operator",
          "type": "address"
        },
        {
          "indexed": true,
          "internalType": "address",
          "name": "from",
          "type": "address"
        },
        {
          "indexed": true,
          "internalType": "address",
          "name": "to",
          "type": "address"
        },
        {
          "indexed": false,
          "internalType": "uint256[]",
          "name": "ids",
          "type": "uint256[]"
        },
        {
          "indexed": false,
          "internalType": "uint256[]",
          "name": "values",
          "type": "uint256[]"
        }
      ],
      "name": "TransferBatch",
      "type": "event"
    },
    {
      "anonymous": false,
      "inputs": [
        {
          "indexed": true,
          "internalType": "address",
          "name": "operator",
          "type": "address"
        },
        {
          "indexed": true,
          "internalType": "address",
          "name": "from",
          "type": "address"
        },
        {
          "indexed": true,
          "internalType": "address",
          "name": "to",
          "type": "address"
        },
        {
          "indexed": false,
          "internalType": "uint256",
          "name": "id",
          "type": "uint256"
        },
        {
          "indexed": false,
          "internalType": "uint256",
          "name": "value",
          "type": "uint256"
        }
      ],
      "name": "TransferSingle",
      "type": "event"
    },
    {
      "anonymous": false,
      "inputs": [
        {
          "indexed": false,
          "internalType": "string",
          "name": "value",
          "type": "string"
        },
        {
          "indexed": true,
          "internalType": "uint256",
          "name": "id",
          "type": "uint256"
        }
      ],
      "name": "URI",
      "type": "event"
    },
    {
      "inputs": [],
      "name": "DEFAULT_ADMIN_ROLE",
      "outputs": [
        {
          "internalType": "bytes32",
          "name": "",
          "type": "bytes32"
        }
      ],
      "stateMutability": "view",
      "type": "function"
    },
    {
      "inputs": [],
      "name": "MINTER_ROLE",
      "outputs": [
        {
          "internalType": "bytes32",
          "name": "",
          "type": "bytes32"
        }
      ],
      "stateMutability": "view",
      "type": "function"
    },
    {
      "inputs": [
        {
          "internalType": "address",
          "name": "account",
          "type": "address"
        },
        {
          "internalType": "uint256",
          "name": "id",
          "type": "uint256"
        }
      ],
      "name": "balanceOf",
      "outputs": [
        {
          "internalType": "uint256",
          "name": "",
          "type": "uint256"
        }
      ],
      "stateMutability": "view",
      "type": "function"
    },
    {
      "inputs": [
        {
          "internalType": "address[]",
          "name": "accounts",
          "type": "address[]"
        },
        {
          "internalType": "uint256[]",
          "name": "ids",
          "type": "uint256[]"
        }
      ],
      "name": "balanceOfBatch",
      "outputs": [
        {
          "internalType": "uint256[]",
          "name": "",
          "type": "uint256[]"
        }
      ],
      "stateMutability": "view",
      "type": "function"
    },
    {
      "inputs": [
        {
          "internalType": "address",
          "name": "account",
          "type": "address"
        },
        {
          "internalType": "uint256",
          "name": "id",
          "type": "uint256"
        },
        {
          "internalType": "uint256",
          "name": "value",
          "type": "uint256"
        }
      ],
      "name": "burn",
      "outputs": [],
      "stateMutability": "nonpayable",
      "type": "function"
    },
    {
      "inputs": [
        {
          "internalType": "address",
          "name": "account",
          "type": "address"
        },
        {
          "internalType": "uint256[]",
          "name": "ids",
          "type": "uint256[]"
        },
        {
          "internalType": "uint256[]",
          "name": "values",
          "type": "uint256[]"
        }
      ],
      "name": "burnBatch",
      "outputs": [],
      "stateMutability": "nonpayable",
      "type": "function"
    },
    {
      "inputs": [
        {
          "internalType": "bytes32",
          "name": "role",
          "type": "bytes32"
        }
      ],
      "name": "getRoleAdmin",
      "outputs": [
        {
          "internalType": "bytes32",
          "name": "",
          "type": "bytes32"
        }
      ],
      "stateMutability": "view",
      "type": "function"
    },
    {
      "inputs": [
        {
          "internalType": "bytes32",
          "name": "role",
          "type": "bytes32"
        },
        {
          "internalType": "uint256",
          "name": "index",
          "type": "uint256"
        }
      ],
      "name": "getRoleMember",
      "outputs": [
        {
          "internalType": "address",
          "name": "",
          "type": "address"
        }
      ],
      "stateMutability": "view",
      "type": "function"
    },
    {
      "inputs": [
        {
          "internalType": "bytes32",
          "name": "role",
          "type": "bytes32"
        }
      ],
      "name": "getRoleMemberCount",
      "outputs": [
        {
          "internalType": "uint256",
          "name": "",
          "type": "uint256"
        }
      ],
      "stateMutability": "view",
      "type": "function"
    },
    {
      "inputs": [
        {
          "internalType": "bytes32",
          "name": "role",
          "type": "bytes32"
        },
        {
          "internalType": "address",
          "name": "account",
          "type": "address"
        }
      ],
      "name": "grantRole",
      "outputs": [],
      "stateMutability": "nonpayable",
      "type": "function"
    },
    {
      "inputs": [
        {
          "internalType": "bytes32",
          "name": "role",
          "type": "bytes32"
        },
        {
          "internalType": "address",
          "name": "account",
          "type": "address"
        }
      ],
      "name": "hasRole",
      "outputs": [
        {
          "internalType": "bool",
          "name": "",
          "type": "bool"
        }
      ],
      "stateMutability": "view",
      "type": "function"
    },
    {
      "inputs": [
        {
          "internalType": "address",
          "name": "account",
          "type": "address"
        },
        {
          "internalType": "address",
          "name": "operator",
          "type": "address"
        }
      ],
      "name": "isApprovedForAll",
      "outputs": [
        {
          "internalType": "bool",
          "name": "",
          "type": "bool"
        }
      ],
      "stateMutability": "view",
      "type": "function"
    },
    {
      "inputs": [
        {
          "internalType": "address",
          "name": "to",
          "type": "address"
        },
        {
          "internalType": "uint256",
          "name": "id",
          "type": "uint256"
        },
        {
          "internalType": "uint256",
          "name": "amount",
          "type": "uint256"
        },
        {
          "internalType": "bytes",
          "name": "data",
          "type": "bytes"
        }
      ],
      "name": "mint",
      "outputs": [],
      "stateMutability": "nonpayable",
      "type": "function"
    },
    {
      "inputs": [
        {
          "internalType": "address",
          "name": "to",
          "type": "address"
        },
        {
          "internalType": "uint256[]",
          "name": "ids",
          "type": "uint256[]"
        },
        {
          "internalType": "uint256[]",
          "name": "amounts",
          "type": "uint256[]"
        },
        {
          "internalType": "bytes",
          "name": "data",
          "type": "bytes"
        }
      ],
      "name": "mintBatch",
      "outputs": [],
      "stateMutability": "nonpayable",
      "type": "function"
    },
    {
      "inputs": [
        {
          "internalType": "string",
          "name": "uri",
          "type": "string"
        },
        {
          "internalType": "address",
          "name": "c",
          "type": "address"
        },
        {
          "internalType": "uint128",
          "name": "nonce",
          "type": "uint128"
        }
      ],
      "name": "register",
      "outputs": [],
      "stateMutability": "nonpayable",
      "type": "function"
    },
    {
      "inputs": [
        {
          "internalType": "bytes32",
          "name": "role",
          "type": "bytes32"
        },
        {
          "internalType": "address",
          "name": "account",
          "type": "address"
        }
      ],
      "name": "renounceRole",
      "outputs": [],
      "stateMutability": "nonpayable",
      "type": "function"
    },
    {
      "inputs": [
        {
          "internalType": "bytes32",
          "name": "role",
          "type": "bytes32"
        },
        {
          "internalType": "address",
          "name": "account",
          "type": "address"
        }
      ],
      "name": "revokeRole",
      "outputs": [],
      "stateMutability": "nonpayable",
      "type": "function"
    },
    {
      "inputs": [
        {
          "internalType": "address",
          "name": "from",
          "type": "address"
        },
        {
          "internalType": "address",
          "name": "to",
          "type": "address"
        },
        {
          "internalType": "uint256[]",
          "name": "ids",
          "type": "uint256[]"
        },
        {
          "internalType": "uint256[]",
          "name": "amounts",
          "type": "uint256[]"
        },
        {
          "internalType": "bytes",
          "name": "data",
          "type": "bytes"
        }
      ],
      "name": "safeBatchTransferFrom",
      "outputs": [],
      "stateMutability": "nonpayable",
      "type": "function"
    },
    {
      "inputs": [
        {
          "internalType": "address",
          "name": "from",
          "type": "address"
        },
        {
          "internalType": "address",
          "name": "to",
          "type": "address"
        },
        {
          "internalType": "uint256",
          "name": "id",
          "type": "uint256"
        },
        {
          "internalType": "uint256",
          "name": "amount",
          "type": "uint256"
        },
        {
          "internalType": "bytes",
          "name": "data",
          "type": "bytes"
        }
      ],
      "name": "safeTransferFrom",
      "outputs": [],
      "stateMutability": "nonpayable",
      "type": "function"
    },
    {
      "inputs": [
        {
          "internalType": "address",
          "name": "operator",
          "type": "address"
        },
        {
          "internalType": "bool",
          "name": "approved",
          "type": "bool"
        }
      ],
      "name": "setApprovalForAll",
      "outputs": [],
      "stateMutability": "nonpayable",
      "type": "function"
    },
    {
      "inputs": [
        {
          "internalType": "bytes4",
          "name": "interfaceId",
          "type": "bytes4"
        }
      ],
      "name": "supportsInterface",
      "outputs": [
        {
          "internalType": "bool",
          "name": "",
          "type": "bool"
        }
      ],
      "stateMutability": "view",
      "type": "function"
    },
    {
      "inputs": [
        {
          "internalType": "uint256",
          "name": "",
          "type": "uint256"
        }
      ],
      "name": "uri",
      "outputs": [
        {
          "internalType": "string",
          "name": "",
          "type": "string"
        }
      ],
      "stateMutability": "view",
      "type": "function"
    }
  ],
  "bytecode": "0x60806040523480156200001157600080fd5b506040516200511338038062005113833981810160405281019062000037919062000449565b8062000049816200007560201b60201c565b506200006e6000801b620000626200009160201b60201c565b6200009960201b60201c565b50620005fe565b80600490805190602001906200008d92919062000327565b5050565b600033905090565b620000b08282620000e160201b62000f8f1760201c565b620000dc8160016000858152602001908152602001600020620000f760201b62000f9d1790919060201c565b505050565b620000f382826200012f60201b60201c565b5050565b600062000127836000018373ffffffffffffffffffffffffffffffffffffffff1660001b6200022060201b60201c565b905092915050565b6200014182826200029a60201b60201c565b6200021c57600160008084815260200190815260200160002060000160008373ffffffffffffffffffffffffffffffffffffffff1673ffffffffffffffffffffffffffffffffffffffff16815260200190815260200160002060006101000a81548160ff021916908315150217905550620001c16200009160201b60201c565b73ffffffffffffffffffffffffffffffffffffffff168173ffffffffffffffffffffffffffffffffffffffff16837f2f8788117e7eff1d82e926ec794901d17c78024a50270940304540a733656f0d60405160405180910390a45b5050565b60006200023483836200030460201b60201c565b6200028f57826000018290806001815401808255809150506001900390600052602060002001600090919091909150558260000180549050836001016000848152602001908152602001600020819055506001905062000294565b600090505b92915050565b600080600084815260200190815260200160002060000160008373ffffffffffffffffffffffffffffffffffffffff1673ffffffffffffffffffffffffffffffffffffffff16815260200190815260200160002060009054906101000a900460ff16905092915050565b600080836001016000848152602001908152602001600020541415905092915050565b828054620003359062000523565b90600052602060002090601f016020900481019282620003595760008555620003a5565b82601f106200037457805160ff1916838001178555620003a5565b82800160010185558215620003a5579182015b82811115620003a457825182559160200191906001019062000387565b5b509050620003b49190620003b8565b5090565b5b80821115620003d3576000816000905550600101620003b9565b5090565b6000620003ee620003e884620004b7565b6200048e565b9050828152602081018484840111156200040757600080fd5b62000414848285620004ed565b509392505050565b600082601f8301126200042e57600080fd5b815162000440848260208601620003d7565b91505092915050565b6000602082840312156200045c57600080fd5b600082015167ffffffffffffffff8111156200047757600080fd5b62000485848285016200041c565b91505092915050565b60006200049a620004ad565b9050620004a8828262000559565b919050565b6000604051905090565b600067ffffffffffffffff821115620004d557620004d4620005be565b5b620004e082620005ed565b9050602081019050919050565b60005b838110156200050d578082015181840152602081019050620004f0565b838111156200051d576000848401525b50505050565b600060028204905060018216806200053c57607f821691505b602082108114156200055357620005526200058f565b5b50919050565b6200056482620005ed565b810181811067ffffffffffffffff82111715620005865762000585620005be565b5b80604052505050565b7f4e487b7100000000000000000000000000000000000000000000000000000000600052602260045260246000fd5b7f4e487b7100000000000000000000000000000000000000000000000000000000600052604160045260246000fd5b6000601f19601f8301169050919050565b614b05806200060e6000396000f3fe608060405234801561001057600080fd5b50600436106101415760003560e01c80639010d07c116100b8578063ca15c8731161007c578063ca15c87314610394578063d5391393146103c4578063d547741f146103e2578063e985e9c5146103fe578063f242432a1461042e578063f5298aca1461044a57610141565b80639010d07c146102de57806391d148541461030e578063a217fddf1461033e578063a22cb4651461035c578063b8ce91271461037857610141565b80632eb2c2d61161010a5780632eb2c2d6146102225780632f2ff15d1461023e57806336568abe1461025a5780634e1273f4146102765780636b20c454146102a6578063731133e9146102c257610141565b8062fdd58e1461014657806301ffc9a7146101765780630e89341c146101a65780631f7fdffa146101d6578063248a9ca3146101f2575b600080fd5b610160600480360381019061015b9190613468565b610466565b60405161016d9190613f42565b60405180910390f35b610190600480360381019061018b919061367b565b610530565b60405161019d9190613cca565b60405180910390f35b6101c060048036038101906101bb9190613734565b610542565b6040516101cd9190613d00565b60405180910390f35b6101f060048036038101906101eb9190613381565b6105d6565b005b61020c600480360381019061020791906135da565b610658565b6040516102199190613ce5565b60405180910390f35b61023c600480360381019061023791906131b4565b610677565b005b61025860048036038101906102539190613603565b610718565b005b610274600480360381019061026f9190613603565b61074c565b005b610290600480360381019061028b919061356e565b610780565b60405161029d9190613c71565b60405180910390f35b6102c060048036038101906102bb9190613302565b610931565b005b6102dc60048036038101906102d791906134f3565b6109ce565b005b6102f860048036038101906102f3919061363f565b610a50565b6040516103059190613b94565b60405180910390f35b61032860048036038101906103239190613603565b610a7f565b6040516103359190613cca565b60405180910390f35b610346610ae9565b6040516103539190613ce5565b60405180910390f35b6103766004803603810190610371919061342c565b610af0565b005b610392600480360381019061038d91906136cd565b610c71565b005b6103ae60048036038101906103a991906135da565b610d41565b6040516103bb9190613f42565b60405180910390f35b6103cc610d65565b6040516103d99190613ce5565b60405180910390f35b6103fc60048036038101906103f79190613603565b610d89565b005b61041860048036038101906104139190613178565b610dbd565b6040516104259190613cca565b60405180910390f35b61044860048036038101906104439190613273565b610e51565b005b610464600480360381019061045f91906134a4565b610ef2565b005b60008073ffffffffffffffffffffffffffffffffffffffff168373ffffffffffffffffffffffffffffffffffffffff1614156104d7576040517f08c379a00000000000000000000000000000000000000000000000000000000081526004016104ce90613d82565b60405180910390fd5b6002600083815260200190815260200160002060008473ffffffffffffffffffffffffffffffffffffffff1673ffffffffffffffffffffffffffffffffffffffff16815260200190815260200160002054905092915050565b600061053b82610fcd565b9050919050565b606060048054610551906142cb565b80601f016020809104026020016040519081016040528092919081815260200182805461057d906142cb565b80156105ca5780601f1061059f576101008083540402835291602001916105ca565b820191906000526020600020905b8154815290600101906020018083116105ad57829003601f168201915b50505050509050919050565b6106077f9f2df0fed2c77648de5860a4cc508cd0818c85b8b8a1ab4ceeef8d981c8956a66106026110af565b610a7f565b610646576040517f08c379a000000000000000000000000000000000000000000000000000000000815260040161063d90613f02565b60405180910390fd5b610652848484846110b7565b50505050565b6000806000838152602001908152602001600020600101549050919050565b61067f6110af565b73ffffffffffffffffffffffffffffffffffffffff168573ffffffffffffffffffffffffffffffffffffffff1614806106c557506106c4856106bf6110af565b610dbd565b5b610704576040517f08c379a00000000000000000000000000000000000000000000000000000000081526004016106fb90613e02565b60405180910390fd5b6107118585858585611322565b5050505050565b6107228282611685565b6107478160016000858152602001908152602001600020610f9d90919063ffffffff16565b505050565b61075682826116ae565b61077b816001600085815260200190815260200160002061173190919063ffffffff16565b505050565b606081518351146107c6576040517f08c379a00000000000000000000000000000000000000000000000000000000081526004016107bd90613ea2565b60405180910390fd5b6000835167ffffffffffffffff811115610809577f4e487b7100000000000000000000000000000000000000000000000000000000600052604160045260246000fd5b6040519080825280602002602001820160405280156108375781602001602082028036833780820191505090505b50905060005b8451811015610926576108d0858281518110610882577f4e487b7100000000000000000000000000000000000000000000000000000000600052603260045260246000fd5b60200260200101518583815181106108c3577f4e487b7100000000000000000000000000000000000000000000000000000000600052603260045260246000fd5b6020026020010151610466565b828281518110610909577f4e487b7100000000000000000000000000000000000000000000000000000000600052603260045260246000fd5b6020026020010181815250508061091f9061432e565b905061083d565b508091505092915050565b6109396110af565b73ffffffffffffffffffffffffffffffffffffffff168373ffffffffffffffffffffffffffffffffffffffff16148061097f575061097e836109796110af565b610dbd565b5b6109be576040517f08c379a00000000000000000000000000000000000000000000000000000000081526004016109b590613dc2565b60405180910390fd5b6109c9838383611761565b505050565b6109ff7f9f2df0fed2c77648de5860a4cc508cd0818c85b8b8a1ab4ceeef8d981c8956a66109fa6110af565b610a7f565b610a3e576040517f08c379a0000000000000000000000000000000000000000000000000000000008152600401610a3590613f02565b60405180910390fd5b610a4a84848484611a60565b50505050565b6000610a778260016000868152602001908152602001600020611bf790919063ffffffff16565b905092915050565b600080600084815260200190815260200160002060000160008373ffffffffffffffffffffffffffffffffffffffff1673ffffffffffffffffffffffffffffffffffffffff16815260200190815260200160002060009054906101000a900460ff16905092915050565b6000801b81565b8173ffffffffffffffffffffffffffffffffffffffff16610b0f6110af565b73ffffffffffffffffffffffffffffffffffffffff161415610b66576040517f08c379a0000000000000000000000000000000000000000000000000000000008152600401610b5d90613e82565b60405180910390fd5b8060036000610b736110af565b73ffffffffffffffffffffffffffffffffffffffff1673ffffffffffffffffffffffffffffffffffffffff16815260200190815260200160002060008473ffffffffffffffffffffffffffffffffffffffff1673ffffffffffffffffffffffffffffffffffffffff16815260200190815260200160002060006101000a81548160ff0219169083151502179055508173ffffffffffffffffffffffffffffffffffffffff16610c206110af565b73ffffffffffffffffffffffffffffffffffffffff167f17307eab39ab6107e8899845ad3d59bd9653f200f220920489ca2b5937696c3183604051610c659190613cca565b60405180910390a35050565b610c856000801b610c806110af565b610a7f565b610cc4576040517f08c379a0000000000000000000000000000000000000000000000000000000008152600401610cbb90613e62565b60405180910390fd5b610cee7f9f2df0fed2c77648de5860a4cc508cd0818c85b8b8a1ab4ceeef8d981c8956a683610718565b6080816fffffffffffffffffffffffffffffffff16901b7f6bb7ff708619ba0610cba295a58592e0451dee2622938c8755667688daf3529b84604051610d349190613d00565b60405180910390a2505050565b6000610d5e60016000848152602001908152602001600020611c11565b9050919050565b7f9f2df0fed2c77648de5860a4cc508cd0818c85b8b8a1ab4ceeef8d981c8956a681565b610d938282611c26565b610db8816001600085815260200190815260200160002061173190919063ffffffff16565b505050565b6000600360008473ffffffffffffffffffffffffffffffffffffffff1673ffffffffffffffffffffffffffffffffffffffff16815260200190815260200160002060008373ffffffffffffffffffffffffffffffffffffffff1673ffffffffffffffffffffffffffffffffffffffff16815260200190815260200160002060009054906101000a900460ff16905092915050565b610e596110af565b73ffffffffffffffffffffffffffffffffffffffff168573ffffffffffffffffffffffffffffffffffffffff161480610e9f5750610e9e85610e996110af565b610dbd565b5b610ede576040517f08c379a0000000000000000000000000000000000000000000000000000000008152600401610ed590613dc2565b60405180910390fd5b610eeb8585858585611c4f565b5050505050565b610efa6110af565b73ffffffffffffffffffffffffffffffffffffffff168373ffffffffffffffffffffffffffffffffffffffff161480610f405750610f3f83610f3a6110af565b610dbd565b5b610f7f576040517f08c379a0000000000000000000000000000000000000000000000000000000008152600401610f7690613dc2565b60405180910390fd5b610f8a838383611ed4565b505050565b610f9982826120f3565b5050565b6000610fc5836000018373ffffffffffffffffffffffffffffffffffffffff1660001b6121d3565b905092915050565b60007fd9b67a26000000000000000000000000000000000000000000000000000000007bffffffffffffffffffffffffffffffffffffffffffffffffffffffff1916827bffffffffffffffffffffffffffffffffffffffffffffffffffffffff1916148061109857507f0e89341c000000000000000000000000000000000000000000000000000000007bffffffffffffffffffffffffffffffffffffffffffffffffffffffff1916827bffffffffffffffffffffffffffffffffffffffffffffffffffffffff1916145b806110a857506110a782612243565b5b9050919050565b600033905090565b600073ffffffffffffffffffffffffffffffffffffffff168473ffffffffffffffffffffffffffffffffffffffff161415611127576040517f08c379a000000000000000000000000000000000000000000000000000000000815260040161111e90613ee2565b60405180910390fd5b815183511461116b576040517f08c379a000000000000000000000000000000000000000000000000000000000815260040161116290613ec2565b60405180910390fd5b60006111756110af565b9050611186816000878787876122bd565b60005b845181101561128c578381815181106111cb577f4e487b7100000000000000000000000000000000000000000000000000000000600052603260045260246000fd5b602002602001015160026000878481518110611210577f4e487b7100000000000000000000000000000000000000000000000000000000600052603260045260246000fd5b6020026020010151815260200190815260200160002060008873ffffffffffffffffffffffffffffffffffffffff1673ffffffffffffffffffffffffffffffffffffffff168152602001908152602001600020600082825461127291906140e1565b9250508190555080806112849061432e565b915050611189565b508473ffffffffffffffffffffffffffffffffffffffff16600073ffffffffffffffffffffffffffffffffffffffff168273ffffffffffffffffffffffffffffffffffffffff167f4a39dc06d4c0dbc64b70af90fd698a233a518aa5d07e595d983b8c0526c8f7fb8787604051611304929190613c93565b60405180910390a461131b816000878787876122d3565b5050505050565b8151835114611366576040517f08c379a000000000000000000000000000000000000000000000000000000000815260040161135d90613ec2565b60405180910390fd5b600073ffffffffffffffffffffffffffffffffffffffff168473ffffffffffffffffffffffffffffffffffffffff1614156113d6576040517f08c379a00000000000000000000000000000000000000000000000000000000081526004016113cd90613de2565b60405180910390fd5b60006113e06110af565b90506113f08187878787876122bd565b60005b84518110156115f0576000858281518110611437577f4e487b7100000000000000000000000000000000000000000000000000000000600052603260045260246000fd5b60200260200101519050600085838151811061147c577f4e487b7100000000000000000000000000000000000000000000000000000000600052603260045260246000fd5b6020026020010151905060006002600084815260200190815260200160002060008b73ffffffffffffffffffffffffffffffffffffffff1673ffffffffffffffffffffffffffffffffffffffff1681526020019081526020016000205490508181101561151e576040517f08c379a000000000000000000000000000000000000000000000000000000000815260040161151590613e42565b60405180910390fd5b8181036002600085815260200190815260200160002060008c73ffffffffffffffffffffffffffffffffffffffff1673ffffffffffffffffffffffffffffffffffffffff16815260200190815260200160002081905550816002600085815260200190815260200160002060008b73ffffffffffffffffffffffffffffffffffffffff1673ffffffffffffffffffffffffffffffffffffffff16815260200190815260200160002060008282546115d591906140e1565b92505081905550505050806115e99061432e565b90506113f3565b508473ffffffffffffffffffffffffffffffffffffffff168673ffffffffffffffffffffffffffffffffffffffff168273ffffffffffffffffffffffffffffffffffffffff167f4a39dc06d4c0dbc64b70af90fd698a233a518aa5d07e595d983b8c0526c8f7fb8787604051611667929190613c93565b60405180910390a461167d8187878787876122d3565b505050505050565b61168e82610658565b61169f8161169a6110af565b6124ba565b6116a983836120f3565b505050565b6116b66110af565b73ffffffffffffffffffffffffffffffffffffffff168173ffffffffffffffffffffffffffffffffffffffff1614611723576040517f08c379a000000000000000000000000000000000000000000000000000000000815260040161171a90613f22565b60405180910390fd5b61172d8282612557565b5050565b6000611759836000018373ffffffffffffffffffffffffffffffffffffffff1660001b612638565b905092915050565b600073ffffffffffffffffffffffffffffffffffffffff168373ffffffffffffffffffffffffffffffffffffffff1614156117d1576040517f08c379a00000000000000000000000000000000000000000000000000000000081526004016117c890613e22565b60405180910390fd5b8051825114611815576040517f08c379a000000000000000000000000000000000000000000000000000000000815260040161180c90613ec2565b60405180910390fd5b600061181f6110af565b905061183f818560008686604051806020016040528060008152506122bd565b60005b83518110156119da576000848281518110611886577f4e487b7100000000000000000000000000000000000000000000000000000000600052603260045260246000fd5b6020026020010151905060008483815181106118cb577f4e487b7100000000000000000000000000000000000000000000000000000000600052603260045260246000fd5b6020026020010151905060006002600084815260200190815260200160002060008973ffffffffffffffffffffffffffffffffffffffff1673ffffffffffffffffffffffffffffffffffffffff1681526020019081526020016000205490508181101561196d576040517f08c379a000000000000000000000000000000000000000000000000000000000815260040161196490613da2565b60405180910390fd5b8181036002600085815260200190815260200160002060008a73ffffffffffffffffffffffffffffffffffffffff1673ffffffffffffffffffffffffffffffffffffffff1681526020019081526020016000208190555050505080806119d29061432e565b915050611842565b50600073ffffffffffffffffffffffffffffffffffffffff168473ffffffffffffffffffffffffffffffffffffffff168273ffffffffffffffffffffffffffffffffffffffff167f4a39dc06d4c0dbc64b70af90fd698a233a518aa5d07e595d983b8c0526c8f7fb8686604051611a52929190613c93565b60405180910390a450505050565b600073ffffffffffffffffffffffffffffffffffffffff168473ffffffffffffffffffffffffffffffffffffffff161415611ad0576040517f08c379a0000000000000000000000000000000000000000000000000000000008152600401611ac790613ee2565b60405180910390fd5b6000611ada6110af565b9050611afb81600087611aec886127be565b611af5886127be565b876122bd565b826002600086815260200190815260200160002060008773ffffffffffffffffffffffffffffffffffffffff1673ffffffffffffffffffffffffffffffffffffffff1681526020019081526020016000206000828254611b5b91906140e1565b925050819055508473ffffffffffffffffffffffffffffffffffffffff16600073ffffffffffffffffffffffffffffffffffffffff168273ffffffffffffffffffffffffffffffffffffffff167fc3d58168c5ae7397731d063d5bbf3d657854427343f4c083240f7aacaa2d0f628787604051611bd9929190613f5d565b60405180910390a4611bf081600087878787612884565b5050505050565b6000611c068360000183612a6b565b60001c905092915050565b6000611c1f82600001612abc565b9050919050565b611c2f82610658565b611c4081611c3b6110af565b6124ba565b611c4a8383612557565b505050565b600073ffffffffffffffffffffffffffffffffffffffff168473ffffffffffffffffffffffffffffffffffffffff161415611cbf576040517f08c379a0000000000000000000000000000000000000000000000000000000008152600401611cb690613de2565b60405180910390fd5b6000611cc96110af565b9050611ce9818787611cda886127be565b611ce3886127be565b876122bd565b60006002600086815260200190815260200160002060008873ffffffffffffffffffffffffffffffffffffffff1673ffffffffffffffffffffffffffffffffffffffff16815260200190815260200160002054905083811015611d81576040517f08c379a0000000000000000000000000000000000000000000000000000000008152600401611d7890613e42565b60405180910390fd5b8381036002600087815260200190815260200160002060008973ffffffffffffffffffffffffffffffffffffffff1673ffffffffffffffffffffffffffffffffffffffff16815260200190815260200160002081905550836002600087815260200190815260200160002060008873ffffffffffffffffffffffffffffffffffffffff1673ffffffffffffffffffffffffffffffffffffffff1681526020019081526020016000206000828254611e3891906140e1565b925050819055508573ffffffffffffffffffffffffffffffffffffffff168773ffffffffffffffffffffffffffffffffffffffff168373ffffffffffffffffffffffffffffffffffffffff167fc3d58168c5ae7397731d063d5bbf3d657854427343f4c083240f7aacaa2d0f628888604051611eb5929190613f5d565b60405180910390a4611ecb828888888888612884565b50505050505050565b600073ffffffffffffffffffffffffffffffffffffffff168373ffffffffffffffffffffffffffffffffffffffff161415611f44576040517f08c379a0000000000000000000000000000000000000000000000000000000008152600401611f3b90613e22565b60405180910390fd5b6000611f4e6110af565b9050611f7e81856000611f60876127be565b611f69876127be565b604051806020016040528060008152506122bd565b60006002600085815260200190815260200160002060008673ffffffffffffffffffffffffffffffffffffffff1673ffffffffffffffffffffffffffffffffffffffff16815260200190815260200160002054905082811015612016576040517f08c379a000000000000000000000000000000000000000000000000000000000815260040161200d90613da2565b60405180910390fd5b8281036002600086815260200190815260200160002060008773ffffffffffffffffffffffffffffffffffffffff1673ffffffffffffffffffffffffffffffffffffffff16815260200190815260200160002081905550600073ffffffffffffffffffffffffffffffffffffffff168573ffffffffffffffffffffffffffffffffffffffff168373ffffffffffffffffffffffffffffffffffffffff167fc3d58168c5ae7397731d063d5bbf3d657854427343f4c083240f7aacaa2d0f6287876040516120e4929190613f5d565b60405180910390a45050505050565b6120fd8282610a7f565b6121cf57600160008084815260200190815260200160002060000160008373ffffffffffffffffffffffffffffffffffffffff1673ffffffffffffffffffffffffffffffffffffffff16815260200190815260200160002060006101000a81548160ff0219169083151502179055506121746110af565b73ffffffffffffffffffffffffffffffffffffffff168173ffffffffffffffffffffffffffffffffffffffff16837f2f8788117e7eff1d82e926ec794901d17c78024a50270940304540a733656f0d60405160405180910390a45b5050565b60006121df8383612acd565b61223857826000018290806001815401808255809150506001900390600052602060002001600090919091909150558260000180549050836001016000848152602001908152602001600020819055506001905061223d565b600090505b92915050565b60007f5a05180f000000000000000000000000000000000000000000000000000000007bffffffffffffffffffffffffffffffffffffffffffffffffffffffff1916827bffffffffffffffffffffffffffffffffffffffffffffffffffffffff191614806122b657506122b582612af0565b5b9050919050565b6122cb868686868686612b6a565b505050505050565b6122f28473ffffffffffffffffffffffffffffffffffffffff16612b72565b156124b2578373ffffffffffffffffffffffffffffffffffffffff1663bc197c8187878686866040518663ffffffff1660e01b8152600401612338959493929190613baf565b602060405180830381600087803b15801561235257600080fd5b505af192505050801561238357506040513d601f19601f8201168201806040525081019061238091906136a4565b60015b6124295761238f614404565b806308c379a014156123ec57506123a46149af565b806123af57506123ee565b806040517f08c379a00000000000000000000000000000000000000000000000000000000081526004016123e39190613d00565b60405180910390fd5b505b6040517f08c379a000000000000000000000000000000000000000000000000000000000815260040161242090613d22565b60405180910390fd5b63bc197c8160e01b7bffffffffffffffffffffffffffffffffffffffffffffffffffffffff1916817bffffffffffffffffffffffffffffffffffffffffffffffffffffffff1916146124b0576040517f08c379a00000000000000000000000000000000000000000000000000000000081526004016124a790613d62565b60405180910390fd5b505b505050505050565b6124c48282610a7f565b612553576124e98173ffffffffffffffffffffffffffffffffffffffff166014612b85565b6124f78360001c6020612b85565b604051602001612508929190613b5a565b6040516020818303038152906040526040517f08c379a000000000000000000000000000000000000000000000000000000000815260040161254a9190613d00565b60405180910390fd5b5050565b6125618282610a7f565b1561263457600080600084815260200190815260200160002060000160008373ffffffffffffffffffffffffffffffffffffffff1673ffffffffffffffffffffffffffffffffffffffff16815260200190815260200160002060006101000a81548160ff0219169083151502179055506125d96110af565b73ffffffffffffffffffffffffffffffffffffffff168173ffffffffffffffffffffffffffffffffffffffff16837ff6391f5c32d9c69d2a47ea670b442974b53935d1edc7fd64eb21e047a839171b60405160405180910390a45b5050565b600080836001016000848152602001908152602001600020549050600081146127b257600060018261266a9190614191565b90506000600186600001805490506126829190614191565b905081811461273d5760008660000182815481106126c9577f4e487b7100000000000000000000000000000000000000000000000000000000600052603260045260246000fd5b9060005260206000200154905080876000018481548110612713577f4e487b7100000000000000000000000000000000000000000000000000000000600052603260045260246000fd5b90600052602060002001819055508387600101600083815260200190815260200160002081905550505b85600001805480612777577f4e487b7100000000000000000000000000000000000000000000000000000000600052603160045260246000fd5b6001900381819060005260206000200160009055905585600101600086815260200190815260200160002060009055600193505050506127b8565b60009150505b92915050565b60606000600167ffffffffffffffff811115612803577f4e487b7100000000000000000000000000000000000000000000000000000000600052604160045260246000fd5b6040519080825280602002602001820160405280156128315781602001602082028036833780820191505090505b509050828160008151811061286f577f4e487b7100000000000000000000000000000000000000000000000000000000600052603260045260246000fd5b60200260200101818152505080915050919050565b6128a38473ffffffffffffffffffffffffffffffffffffffff16612b72565b15612a63578373ffffffffffffffffffffffffffffffffffffffff1663f23a6e6187878686866040518663ffffffff1660e01b81526004016128e9959493929190613c17565b602060405180830381600087803b15801561290357600080fd5b505af192505050801561293457506040513d601f19601f8201168201806040525081019061293191906136a4565b60015b6129da57612940614404565b806308c379a0141561299d57506129556149af565b80612960575061299f565b806040517f08c379a00000000000000000000000000000000000000000000000000000000081526004016129949190613d00565b60405180910390fd5b505b6040517f08c379a00000000000000000000000000000000000000000000000000000000081526004016129d190613d22565b60405180910390fd5b63f23a6e6160e01b7bffffffffffffffffffffffffffffffffffffffffffffffffffffffff1916817bffffffffffffffffffffffffffffffffffffffffffffffffffffffff191614612a61576040517f08c379a0000000000000000000000000000000000000000000000000000000008152600401612a5890613d62565b60405180910390fd5b505b505050505050565b6000826000018281548110612aa9577f4e487b7100000000000000000000000000000000000000000000000000000000600052603260045260246000fd5b9060005260206000200154905092915050565b600081600001805490509050919050565b600080836001016000848152602001908152602001600020541415905092915050565b60007f7965db0b000000000000000000000000000000000000000000000000000000007bffffffffffffffffffffffffffffffffffffffffffffffffffffffff1916827bffffffffffffffffffffffffffffffffffffffffffffffffffffffff19161480612b635750612b6282612e7f565b5b9050919050565b505050505050565b600080823b905060008111915050919050565b606060006002836002612b989190614137565b612ba291906140e1565b67ffffffffffffffff811115612be1577f4e487b7100000000000000000000000000000000000000000000000000000000600052604160045260246000fd5b6040519080825280601f01601f191660200182016040528015612c135781602001600182028036833780820191505090505b5090507f300000000000000000000000000000000000000000000000000000000000000081600081518110612c71577f4e487b7100000000000000000000000000000000000000000000000000000000600052603260045260246000fd5b60200101907effffffffffffffffffffffffffffffffffffffffffffffffffffffffffffff1916908160001a9053507f780000000000000000000000000000000000000000000000000000000000000081600181518110612cfb577f4e487b7100000000000000000000000000000000000000000000000000000000600052603260045260246000fd5b60200101907effffffffffffffffffffffffffffffffffffffffffffffffffffffffffffff1916908160001a90535060006001846002612d3b9190614137565b612d4591906140e1565b90505b6001811115612e31577f3031323334353637383961626364656600000000000000000000000000000000600f861660108110612dad577f4e487b7100000000000000000000000000000000000000000000000000000000600052603260045260246000fd5b1a60f81b828281518110612dea577f4e487b7100000000000000000000000000000000000000000000000000000000600052603260045260246000fd5b60200101907effffffffffffffffffffffffffffffffffffffffffffffffffffffffffffff1916908160001a905350600485901c945080612e2a906142a1565b9050612d48565b5060008414612e75576040517f08c379a0000000000000000000000000000000000000000000000000000000008152600401612e6c90613d42565b60405180910390fd5b8091505092915050565b60007f01ffc9a7000000000000000000000000000000000000000000000000000000007bffffffffffffffffffffffffffffffffffffffffffffffffffffffff1916827bffffffffffffffffffffffffffffffffffffffffffffffffffffffff1916149050919050565b6000612efc612ef784613fab565b613f86565b90508083825260208201905082856020860282011115612f1b57600080fd5b60005b85811015612f4b5781612f31888261303d565b845260208401935060208301925050600181019050612f1e565b5050509392505050565b6000612f68612f6384613fd7565b613f86565b90508083825260208201905082856020860282011115612f8757600080fd5b60005b85811015612fb75781612f9d8882613163565b845260208401935060208301925050600181019050612f8a565b5050509392505050565b6000612fd4612fcf84614003565b613f86565b905082815260208101848484011115612fec57600080fd5b612ff784828561425f565b509392505050565b600061301261300d84614034565b613f86565b90508281526020810184848401111561302a57600080fd5b61303584828561425f565b509392505050565b60008135905061304c81614a45565b92915050565b600082601f83011261306357600080fd5b8135613073848260208601612ee9565b91505092915050565b600082601f83011261308d57600080fd5b813561309d848260208601612f55565b91505092915050565b6000813590506130b581614a5c565b92915050565b6000813590506130ca81614a73565b92915050565b6000813590506130df81614a8a565b92915050565b6000815190506130f481614a8a565b92915050565b600082601f83011261310b57600080fd5b813561311b848260208601612fc1565b91505092915050565b600082601f83011261313557600080fd5b8135613145848260208601612fff565b91505092915050565b60008135905061315d81614aa1565b92915050565b60008135905061317281614ab8565b92915050565b6000806040838503121561318b57600080fd5b60006131998582860161303d565b92505060206131aa8582860161303d565b9150509250929050565b600080600080600060a086880312156131cc57600080fd5b60006131da8882890161303d565b95505060206131eb8882890161303d565b945050604086013567ffffffffffffffff81111561320857600080fd5b6132148882890161307c565b935050606086013567ffffffffffffffff81111561323157600080fd5b61323d8882890161307c565b925050608086013567ffffffffffffffff81111561325a57600080fd5b613266888289016130fa565b9150509295509295909350565b600080600080600060a0868803121561328b57600080fd5b60006132998882890161303d565b95505060206132aa8882890161303d565b94505060406132bb88828901613163565b93505060606132cc88828901613163565b925050608086013567ffffffffffffffff8111156132e957600080fd5b6132f5888289016130fa565b9150509295509295909350565b60008060006060848603121561331757600080fd5b60006133258682870161303d565b935050602084013567ffffffffffffffff81111561334257600080fd5b61334e8682870161307c565b925050604084013567ffffffffffffffff81111561336b57600080fd5b6133778682870161307c565b9150509250925092565b6000806000806080858703121561339757600080fd5b60006133a58782880161303d565b945050602085013567ffffffffffffffff8111156133c257600080fd5b6133ce8782880161307c565b935050604085013567ffffffffffffffff8111156133eb57600080fd5b6133f78782880161307c565b925050606085013567ffffffffffffffff81111561341457600080fd5b613420878288016130fa565b91505092959194509250565b6000806040838503121561343f57600080fd5b600061344d8582860161303d565b925050602061345e858286016130a6565b9150509250929050565b6000806040838503121561347b57600080fd5b60006134898582860161303d565b925050602061349a85828601613163565b9150509250929050565b6000806000606084860312156134b957600080fd5b60006134c78682870161303d565b93505060206134d886828701613163565b92505060406134e986828701613163565b9150509250925092565b6000806000806080858703121561350957600080fd5b60006135178782880161303d565b945050602061352887828801613163565b935050604061353987828801613163565b925050606085013567ffffffffffffffff81111561355657600080fd5b613562878288016130fa565b91505092959194509250565b6000806040838503121561358157600080fd5b600083013567ffffffffffffffff81111561359b57600080fd5b6135a785828601613052565b925050602083013567ffffffffffffffff8111156135c457600080fd5b6135d08582860161307c565b9150509250929050565b6000602082840312156135ec57600080fd5b60006135fa848285016130bb565b91505092915050565b6000806040838503121561361657600080fd5b6000613624858286016130bb565b92505060206136358582860161303d565b9150509250929050565b6000806040838503121561365257600080fd5b6000613660858286016130bb565b925050602061367185828601613163565b9150509250929050565b60006020828403121561368d57600080fd5b600061369b848285016130d0565b91505092915050565b6000602082840312156136b657600080fd5b60006136c4848285016130e5565b91505092915050565b6000806000606084860312156136e257600080fd5b600084013567ffffffffffffffff8111156136fc57600080fd5b61370886828701613124565b93505060206137198682870161303d565b925050604061372a8682870161314e565b9150509250925092565b60006020828403121561374657600080fd5b600061375484828501613163565b91505092915050565b60006137698383613b3c565b60208301905092915050565b61377e816141c5565b82525050565b600061378f82614075565b61379981856140a3565b93506137a483614065565b8060005b838110156137d55781516137bc888261375d565b97506137c783614096565b9250506001810190506137a8565b5085935050505092915050565b6137eb816141d7565b82525050565b6137fa816141e3565b82525050565b600061380b82614080565b61381581856140b4565b935061382581856020860161426e565b61382e81614426565b840191505092915050565b60006138448261408b565b61384e81856140c5565b935061385e81856020860161426e565b61386781614426565b840191505092915050565b600061387d8261408b565b61388781856140d6565b935061389781856020860161426e565b80840191505092915050565b60006138b06034836140c5565b91506138bb82614444565b604082019050919050565b60006138d36020836140c5565b91506138de82614493565b602082019050919050565b60006138f66028836140c5565b9150613901826144bc565b604082019050919050565b6000613919602b836140c5565b91506139248261450b565b604082019050919050565b600061393c6024836140c5565b91506139478261455a565b604082019050919050565b600061395f6029836140c5565b915061396a826145a9565b604082019050919050565b60006139826025836140c5565b915061398d826145f8565b604082019050919050565b60006139a56032836140c5565b91506139b082614647565b604082019050919050565b60006139c86023836140c5565b91506139d382614696565b604082019050919050565b60006139eb602a836140c5565b91506139f6826146e5565b604082019050919050565b6000613a0e6031836140c5565b9150613a1982614734565b604082019050919050565b6000613a316017836140d6565b9150613a3c82614783565b601782019050919050565b6000613a546029836140c5565b9150613a5f826147ac565b604082019050919050565b6000613a776029836140c5565b9150613a82826147fb565b604082019050919050565b6000613a9a6028836140c5565b9150613aa58261484a565b604082019050919050565b6000613abd6021836140c5565b9150613ac882614899565b604082019050919050565b6000613ae0602e836140c5565b9150613aeb826148e8565b604082019050919050565b6000613b036011836140d6565b9150613b0e82614937565b601182019050919050565b6000613b26602f836140c5565b9150613b3182614960565b604082019050919050565b613b4581614255565b82525050565b613b5481614255565b82525050565b6000613b6582613a24565b9150613b718285613872565b9150613b7c82613af6565b9150613b888284613872565b91508190509392505050565b6000602082019050613ba96000830184613775565b92915050565b600060a082019050613bc46000830188613775565b613bd16020830187613775565b8181036040830152613be38186613784565b90508181036060830152613bf78185613784565b90508181036080830152613c0b8184613800565b90509695505050505050565b600060a082019050613c2c6000830188613775565b613c396020830187613775565b613c466040830186613b4b565b613c536060830185613b4b565b8181036080830152613c658184613800565b90509695505050505050565b60006020820190508181036000830152613c8b8184613784565b905092915050565b60006040820190508181036000830152613cad8185613784565b90508181036020830152613cc18184613784565b90509392505050565b6000602082019050613cdf60008301846137e2565b92915050565b6000602082019050613cfa60008301846137f1565b92915050565b60006020820190508181036000830152613d1a8184613839565b905092915050565b60006020820190508181036000830152613d3b816138a3565b9050919050565b60006020820190508181036000830152613d5b816138c6565b9050919050565b60006020820190508181036000830152613d7b816138e9565b9050919050565b60006020820190508181036000830152613d9b8161390c565b9050919050565b60006020820190508181036000830152613dbb8161392f565b9050919050565b60006020820190508181036000830152613ddb81613952565b9050919050565b60006020820190508181036000830152613dfb81613975565b9050919050565b60006020820190508181036000830152613e1b81613998565b9050919050565b60006020820190508181036000830152613e3b816139bb565b9050919050565b60006020820190508181036000830152613e5b816139de565b9050919050565b60006020820190508181036000830152613e7b81613a01565b9050919050565b60006020820190508181036000830152613e9b81613a47565b9050919050565b60006020820190508181036000830152613ebb81613a6a565b9050919050565b60006020820190508181036000830152613edb81613a8d565b9050919050565b60006020820190508181036000830152613efb81613ab0565b9050919050565b60006020820190508181036000830152613f1b81613ad3565b9050919050565b60006020820190508181036000830152613f3b81613b19565b9050919050565b6000602082019050613f576000830184613b4b565b92915050565b6000604082019050613f726000830185613b4b565b613f7f6020830184613b4b565b9392505050565b6000613f90613fa1565b9050613f9c82826142fd565b919050565b6000604051905090565b600067ffffffffffffffff821115613fc657613fc56143d5565b5b602082029050602081019050919050565b600067ffffffffffffffff821115613ff257613ff16143d5565b5b602082029050602081019050919050565b600067ffffffffffffffff82111561401e5761401d6143d5565b5b61402782614426565b9050602081019050919050565b600067ffffffffffffffff82111561404f5761404e6143d5565b5b61405882614426565b9050602081019050919050565b6000819050602082019050919050565b600081519050919050565b600081519050919050565b600081519050919050565b6000602082019050919050565b600082825260208201905092915050565b600082825260208201905092915050565b600082825260208201905092915050565b600081905092915050565b60006140ec82614255565b91506140f783614255565b9250827fffffffffffffffffffffffffffffffffffffffffffffffffffffffffffffffff0382111561412c5761412b614377565b5b828201905092915050565b600061414282614255565b915061414d83614255565b9250817fffffffffffffffffffffffffffffffffffffffffffffffffffffffffffffffff048311821515161561418657614185614377565b5b828202905092915050565b600061419c82614255565b91506141a783614255565b9250828210156141ba576141b9614377565b5b828203905092915050565b60006141d082614235565b9050919050565b60008115159050919050565b6000819050919050565b60007fffffffff0000000000000000000000000000000000000000000000000000000082169050919050565b60006fffffffffffffffffffffffffffffffff82169050919050565b600073ffffffffffffffffffffffffffffffffffffffff82169050919050565b6000819050919050565b82818337600083830152505050565b60005b8381101561428c578082015181840152602081019050614271565b8381111561429b576000848401525b50505050565b60006142ac82614255565b915060008214156142c0576142bf614377565b5b600182039050919050565b600060028204905060018216806142e357607f821691505b602082108114156142f7576142f66143a6565b5b50919050565b61430682614426565b810181811067ffffffffffffffff82111715614325576143246143d5565b5b80604052505050565b600061433982614255565b91507fffffffffffffffffffffffffffffffffffffffffffffffffffffffffffffffff82141561436c5761436b614377565b5b600182019050919050565b7f4e487b7100000000000000000000000000000000000000000000000000000000600052601160045260246000fd5b7f4e487b7100000000000000000000000000000000000000000000000000000000600052602260045260246000fd5b7f4e487b7100000000000000000000000000000000000000000000000000000000600052604160045260246000fd5b600060033d11156144235760046000803e614420600051614437565b90505b90565b6000601f19601f8301169050919050565b60008160e01c9050919050565b7f455243313135353a207472616e7366657220746f206e6f6e204552433131353560008201527f526563656976657220696d706c656d656e746572000000000000000000000000602082015250565b7f537472696e67733a20686578206c656e67746820696e73756666696369656e74600082015250565b7f455243313135353a204552433131353552656365697665722072656a6563746560008201527f6420746f6b656e73000000000000000000000000000000000000000000000000602082015250565b7f455243313135353a2062616c616e636520717565727920666f7220746865207a60008201527f65726f2061646472657373000000000000000000000000000000000000000000602082015250565b7f455243313135353a206275726e20616d6f756e7420657863656564732062616c60008201527f616e636500000000000000000000000000000000000000000000000000000000602082015250565b7f455243313135353a2063616c6c6572206973206e6f74206f776e6572206e6f7260008201527f20617070726f7665640000000000000000000000000000000000000000000000602082015250565b7f455243313135353a207472616e7366657220746f20746865207a65726f20616460008201527f6472657373000000000000000000000000000000000000000000000000000000602082015250565b7f455243313135353a207472616e736665722063616c6c6572206973206e6f742060008201527f6f776e6572206e6f7220617070726f7665640000000000000000000000000000602082015250565b7f455243313135353a206275726e2066726f6d20746865207a65726f206164647260008201527f6573730000000000000000000000000000000000000000000000000000000000602082015250565b7f455243313135353a20696e73756666696369656e742062616c616e636520666f60008201527f72207472616e7366657200000000000000000000000000000000000000000000602082015250565b7f426f6e647a696572455243313135353a206d75737420686176652061646d696e60008201527f20726f6c6520746f207265676973746572000000000000000000000000000000602082015250565b7f416363657373436f6e74726f6c3a206163636f756e7420000000000000000000600082015250565b7f455243313135353a2073657474696e6720617070726f76616c2073746174757360008201527f20666f722073656c660000000000000000000000000000000000000000000000602082015250565b7f455243313135353a206163636f756e747320616e6420696473206c656e67746860008201527f206d69736d617463680000000000000000000000000000000000000000000000602082015250565b7f455243313135353a2069647320616e6420616d6f756e7473206c656e6774682060008201527f6d69736d61746368000000000000000000000000000000000000000000000000602082015250565b7f455243313135353a206d696e7420746f20746865207a65726f2061646472657360008201527f7300000000000000000000000000000000000000000000000000000000000000602082015250565b7f426f6e647a696572455243313135353a206d7573742068617665206d696e746560008201527f7220726f6c6520746f206d696e74000000000000000000000000000000000000602082015250565b7f206973206d697373696e6720726f6c6520000000000000000000000000000000600082015250565b7f416363657373436f6e74726f6c3a2063616e206f6e6c792072656e6f756e636560008201527f20726f6c657320666f722073656c660000000000000000000000000000000000602082015250565b600060443d10156149bf57614a42565b6149c7613fa1565b60043d036004823e80513d602482011167ffffffffffffffff821117156149ef575050614a42565b808201805167ffffffffffffffff811115614a0d5750505050614a42565b80602083010160043d038501811115614a2a575050505050614a42565b614a39826020018501866142fd565b82955050505050505b90565b614a4e816141c5565b8114614a5957600080fd5b50565b614a65816141d7565b8114614a7057600080fd5b50565b614a7c816141e3565b8114614a8757600080fd5b50565b614a93816141ed565b8114614a9e57600080fd5b50565b614aaa81614219565b8114614ab557600080fd5b50565b614ac181614255565b8114614acc57600080fd5b5056fea26469706673582212203eba108028b53f670de442208d9abe7f4450e4f789e01532309a3f5f3aa7ce1164736f6c63430008040033",
  "linkReferences": {},
  "deployedLinkReferences": {}
}