{
  "_format": "hh-sol-artifact-1",
  "contractName": "Bondzier",
  "sourceName": "contracts/Bondzier.sol",
  "abi": [
    {
      "inputs": [],
      "stateMutability": "nonpayable",
      "type": "constructor"
    },
    {
      "inputs": [],
      "name": "OwnerAddress",
      "outputs": [
        {
          "internalType": "address payable",
          "name": "",
          "type": "address"
        }
      ],
      "stateMutability": "view",
      "type": "function"
    },
    {
      "inputs": [],
      "name": "amnt",
      "outputs": [
        {
          "internalType": "uint256",
          "name": "",
          "type": "uint256"
        }
      ],
      "stateMutability": "view",
      "type": "function"
    },
    {
      "inputs": [],
      "name": "available",
      "outputs": [
        {
          "internalType": "uint256",
          "name": "",
          "type": "uint256"
        }
      ],
      "stateMutability": "view",
      "type": "function"
    },
    {
      "inputs": [],
      "name": "buy",
      "outputs": [],
      "stateMutability": "payable",
      "type": "function"
    },
    {
      "inputs": [],
      "name": "data",
      "outputs": [
        {
          "internalType": "bytes",
          "name": "",
          "type": "bytes"
        }
      ],
      "stateMutability": "view",
      "type": "function"
    },
    {
      "inputs": [],
      "name": "endTime",
      "outputs": [
        {
          "internalType": "uint256",
          "name": "",
          "type": "uint256"
        }
      ],
      "stateMutability": "view",
      "type": "function"
    },
    {
      "inputs": [],
      "name": "h",
      "outputs": [
        {
          "internalType": "uint128",
          "name": "",
          "type": "uint128"
        }
      ],
      "stateMutability": "view",
      "type": "function"
    },
    {
      "inputs": [
        {
          "internalType": "uint128",
          "name": "_nonce",
          "type": "uint128"
        },
        {
          "internalType": "bool",
          "name": "_isNonFungible",
          "type": "bool"
        },
        {
          "internalType": "uint256",
          "name": "_amnt",
          "type": "uint256"
        },
        {
          "internalType": "uint256",
          "name": "_total",
          "type": "uint256"
        },
        {
          "internalType": "uint256[6]",
          "name": "_points",
          "type": "uint256[6]"
        },
        {
          "internalType": "address",
          "name": "_owneraddress",
          "type": "address"
        },
        {
          "internalType": "uint256",
          "name": "_endTime",
          "type": "uint256"
        },
        {
          "internalType": "string",
          "name": "_uri",
          "type": "string"
        },
        {
          "internalType": "address",
          "name": "_tokenContractAddress",
          "type": "address"
        },
        {
          "internalType": "bytes",
          "name": "_data",
          "type": "bytes"
        }
      ],
      "name": "init",
      "outputs": [],
      "stateMutability": "nonpayable",
      "type": "function"
    },
    {
      "inputs": [],
      "name": "isNonFungible",
      "outputs": [
        {
          "internalType": "bool",
          "name": "",
          "type": "bool"
        }
      ],
      "stateMutability": "view",
      "type": "function"
    },
    {
      "inputs": [],
      "name": "n",
      "outputs": [
        {
          "internalType": "uint256",
          "name": "",
          "type": "uint256"
        }
      ],
      "stateMutability": "view",
      "type": "function"
    },
    {
      "inputs": [],
      "name": "nextPrice",
      "outputs": [
        {
          "internalType": "uint256",
          "name": "",
          "type": "uint256"
        }
      ],
      "stateMutability": "view",
      "type": "function"
    },
    {
      "inputs": [],
      "name": "nonce",
      "outputs": [
        {
          "internalType": "uint128",
          "name": "",
          "type": "uint128"
        }
      ],
      "stateMutability": "view",
      "type": "function"
    },
    {
      "inputs": [
        {
          "internalType": "uint256",
          "name": "",
          "type": "uint256"
        }
      ],
      "name": "p0",
      "outputs": [
        {
          "internalType": "uint256",
          "name": "",
          "type": "uint256"
        }
      ],
      "stateMutability": "view",
      "type": "function"
    },
    {
      "inputs": [
        {
          "internalType": "uint256",
          "name": "",
          "type": "uint256"
        }
      ],
      "name": "p1",
      "outputs": [
        {
          "internalType": "uint256",
          "name": "",
          "type": "uint256"
        }
      ],
      "stateMutability": "view",
      "type": "function"
    },
    {
      "inputs": [
        {
          "internalType": "uint256",
          "name": "",
          "type": "uint256"
        }
      ],
      "name": "p2",
      "outputs": [
        {
          "internalType": "uint256",
          "name": "",
          "type": "uint256"
        }
      ],
      "stateMutability": "view",
      "type": "function"
    },
    {
      "inputs": [
        {
          "internalType": "uint256",
          "name": "",
          "type": "uint256"
        }
      ],
      "name": "p3",
      "outputs": [
        {
          "internalType": "uint256",
          "name": "",
          "type": "uint256"
        }
      ],
      "stateMutability": "view",
      "type": "function"
    },
    {
      "inputs": [
        {
          "internalType": "uint256",
          "name": "_n",
          "type": "uint256"
        }
      ],
      "name": "priceN",
      "outputs": [
        {
          "internalType": "uint256",
          "name": "p",
          "type": "uint256"
        }
      ],
      "stateMutability": "view",
      "type": "function"
    },
    {
      "inputs": [],
      "name": "step",
      "outputs": [
        {
          "internalType": "uint256",
          "name": "",
          "type": "uint256"
        }
      ],
      "stateMutability": "view",
      "type": "function"
    },
    {
      "inputs": [],
      "name": "tokenContractAddress",
      "outputs": [
        {
          "internalType": "address",
          "name": "",
          "type": "address"
        }
      ],
      "stateMutability": "view",
      "type": "function"
    },
    {
      "inputs": [],
      "name": "total",
      "outputs": [
        {
          "internalType": "uint256",
          "name": "",
          "type": "uint256"
        }
      ],
      "stateMutability": "view",
      "type": "function"
    },
    {
      "inputs": [],
      "name": "uri",
      "outputs": [
        {
          "internalType": "string",
          "name": "",
          "type": "string"
        }
      ],
      "stateMutability": "view",
      "type": "function"
    }
  ],
  "bytecode": "0x608060405234801561001057600080fd5b50670de0b6b3a7640000600b81905550612b2e8061002f6000396000f3fe60806040526004361061012a5760003560e01c80637f7d1a21116100ab578063b8c9d3651161006f578063b8c9d365146103c7578063ce427bcc146103f2578063e25fe1751461042f578063e28756b41461045a578063eac989f814610497578063ef9089d6146104c25761012a565b80637f7d1a21146102ff57806382edaf941461033c5780639ba78b3914610367578063a6f2ae3a14610392578063affed0e01461039c5761012a565b80633197cbb6116100f25780633197cbb61461022a57806348a0d7541461025557806373d4a13a146102805780637856b76f146102ab5780637f17b05d146102d45761012a565b806304b1909e1461012f5780630cc707261461015a578063154cf101146101975780632ddbd13a146101d45780632e52d606146101ff575b600080fd5b34801561013b57600080fd5b506101446104ed565b60405161015191906123c8565b60405180910390f35b34801561016657600080fd5b50610181600480360381019061017c9190611cfe565b6104f3565b60405161018e91906123c8565b60405180910390f35b3480156101a357600080fd5b506101be60048036038101906101b99190611cfe565b61050e565b6040516101cb91906123c8565b60405180910390f35b3480156101e057600080fd5b506101e9610529565b6040516101f691906123c8565b60405180910390f35b34801561020b57600080fd5b5061021461052f565b60405161022191906123c8565b60405180910390f35b34801561023657600080fd5b5061023f610535565b60405161024c91906123c8565b60405180910390f35b34801561026157600080fd5b5061026a61053b565b60405161027791906123c8565b60405180910390f35b34801561028c57600080fd5b50610295610552565b6040516102a29190612169565b60405180910390f35b3480156102b757600080fd5b506102d260048036038101906102cd9190611bf0565b6105e0565b005b3480156102e057600080fd5b506102e9610d38565b6040516102f691906120e7565b60405180910390f35b34801561030b57600080fd5b5061032660048036038101906103219190611cfe565b610d5e565b60405161033391906123c8565b60405180910390f35b34801561034857600080fd5b50610351610f0b565b60405161035e91906120cc565b60405180910390f35b34801561037357600080fd5b5061037c610f31565b604051610389919061214e565b60405180910390f35b61039a610f44565b005b3480156103a857600080fd5b506103b16112f9565b6040516103be91906123ad565b60405180910390f35b3480156103d357600080fd5b506103dc61131b565b6040516103e991906123ad565b60405180910390f35b3480156103fe57600080fd5b5061041960048036038101906104149190611cfe565b61133b565b60405161042691906123c8565b60405180910390f35b34801561043b57600080fd5b50610444611356565b60405161045191906123c8565b60405180910390f35b34801561046657600080fd5b50610481600480360381019061047c9190611cfe565b61139e565b60405161048e91906123c8565b60405180910390f35b3480156104a357600080fd5b506104ac6113b9565b6040516104b9919061218b565b60405180910390f35b3480156104ce57600080fd5b506104d7611447565b6040516104e491906123c8565b60405180910390f35b600e5481565b6003816002811061050357600080fd5b016000915090505481565b6009816002811061051e57600080fd5b016000915090505481565b600d5481565b600c5481565b600f5481565b6000600c54600d5461054d9190612584565b905090565b6012805461055f90612670565b80601f016020809104026020016040519081016040528092919081815260200182805461058b90612670565b80156105d85780601f106105ad576101008083540402835291602001916105d8565b820191906000526020600020905b8154815290600101906020018083116105bb57829003601f168201915b505050505081565b670de0b6b3a7640000600b54141561062d576040517f08c379a00000000000000000000000000000000000000000000000000000000081526004016106249061232d565b60405180910390fd5b6000610638886115ac565b14610678576040517f08c379a000000000000000000000000000000000000000000000000000000000815260040161066f906121cd565b60405180910390fd5b670de0b6b3a76400008710156106c3576040517f08c379a00000000000000000000000000000000000000000000000000000000081526004016106ba9061230d565b60405180910390fd5b60008811610706576040517f08c379a00000000000000000000000000000000000000000000000000000000081526004016106fd906121ed565b60405180910390fd5b8686600160068110610741577f4e487b7100000000000000000000000000000000000000000000000000000000600052603260045260246000fd5b60200201511115610787576040517f08c379a000000000000000000000000000000000000000000000000000000000815260040161077e9061238d565b60405180910390fd5b86866003600681106107c2577f4e487b7100000000000000000000000000000000000000000000000000000000600052603260045260246000fd5b60200201511115610808576040517f08c379a00000000000000000000000000000000000000000000000000000000081526004016107ff9061238d565b60405180910390fd5b600073ffffffffffffffffffffffffffffffffffffffff168573ffffffffffffffffffffffffffffffffffffffff161415610878576040517f08c379a000000000000000000000000000000000000000000000000000000000815260040161086f9061236d565b60405180910390fd5b600073ffffffffffffffffffffffffffffffffffffffff168273ffffffffffffffffffffffffffffffffffffffff1614156108e8576040517f08c379a00000000000000000000000000000000000000000000000000000000081526004016108df906122cd565b60405180910390fd5b42841161092a576040517f08c379a00000000000000000000000000000000000000000000000000000000081526004016109219061226d565b60405180910390fd5b88156109745760018814610973576040517f08c379a000000000000000000000000000000000000000000000000000000000815260040161096a9061228d565b60405180910390fd5b5b670de0b6b3a7640000600b8190555088601160006101000a81548160ff02191690831515021790555087600e8190555086600d81905550604051806040016040528060008152602001876000600681106109f7577f4e487b7100000000000000000000000000000000000000000000000000000000600052603260045260246000fd5b60200201518152506003906002610a0f9291906118d9565b50604051806040016040528087600160068110610a55577f4e487b7100000000000000000000000000000000000000000000000000000000600052603260045260246000fd5b6020020151815260200187600260068110610a99577f4e487b7100000000000000000000000000000000000000000000000000000000600052603260045260246000fd5b60200201518152506005906002610ab19291906118d9565b50604051806040016040528087600360068110610af7577f4e487b7100000000000000000000000000000000000000000000000000000000600052603260045260246000fd5b6020020151815260200187600460068110610b3b577f4e487b7100000000000000000000000000000000000000000000000000000000600052603260045260246000fd5b60200201518152506007906002610b539291906118d9565b506040518060400160405280600d54815260200187600560068110610ba1577f4e487b7100000000000000000000000000000000000000000000000000000000600052603260045260246000fd5b60200201518152506009906002610bb99291906118d9565b506000600c8190555060006010806101000a8154816fffffffffffffffffffffffffffffffff02191690836fffffffffffffffffffffffffffffffff16021790555081600160006101000a81548173ffffffffffffffffffffffffffffffffffffffff021916908373ffffffffffffffffffffffffffffffffffffffff16021790555084600260006101000a81548173ffffffffffffffffffffffffffffffffffffffff021916908373ffffffffffffffffffffffffffffffffffffffff1602179055508260009080519060200190610c93929190611919565b5089601060006101000a8154816fffffffffffffffffffffffffffffffff02191690836fffffffffffffffffffffffffffffffff16021790555083600f8190555081601160016101000a81548173ffffffffffffffffffffffffffffffffffffffff021916908373ffffffffffffffffffffffffffffffffffffffff1602179055508060129080519060200190610d2b92919061199f565b5050505050505050505050565b600260009054906101000a900473ffffffffffffffffffffffffffffffffffffffff1681565b600080610d6a836115ac565b14610daa576040517f08c379a0000000000000000000000000000000000000000000000000000000008152600401610da1906122ad565b60405180910390fd5b600d548210610dee576040517f08c379a0000000000000000000000000000000000000000000000000000000008152600401610de5906122ed565b60405180910390fd5b610f046003600160028110610e2c577f4e487b7100000000000000000000000000000000000000000000000000000000600052603260045260246000fd5b01546005600160028110610e69577f4e487b7100000000000000000000000000000000000000000000000000000000600052603260045260246000fd5b01546007600160028110610ea6577f4e487b7100000000000000000000000000000000000000000000000000000000600052603260045260246000fd5b01546009600160028110610ee3577f4e487b7100000000000000000000000000000000000000000000000000000000600052603260045260246000fd5b0154610eff610ef0611356565b886115c090919063ffffffff16565b6115d4565b9050919050565b600160009054906101000a900473ffffffffffffffffffffffffffffffffffffffff1681565b601160009054906101000a900460ff1681565b600f544210610f88576040517f08c379a0000000000000000000000000000000000000000000000000000000008152600401610f7f9061220d565b60405180910390fd5b6000610f92611447565b905080341015610fd7576040517f08c379a0000000000000000000000000000000000000000000000000000000008152600401610fce9061234d565b60405180910390fd5b60008134610fe59190612584565b9050600060108054906101000a90046fffffffffffffffffffffffffffffffff166fffffffffffffffffffffffffffffffff166080601060009054906101000a90046fffffffffffffffffffffffffffffffff166fffffffffffffffffffffffffffffffff16901b179050670de0b6b3a7640000600c54611066919061252e565b600c81905550601160009054906101000a900460ff16156110e257600160108054906101000a90046fffffffffffffffffffffffffffffffff166110aa91906124e8565b6010806101000a8154816fffffffffffffffffffffffffffffffff02191690836fffffffffffffffffffffffffffffffff1602179055505b6000600260009054906101000a900473ffffffffffffffffffffffffffffffffffffffff1673ffffffffffffffffffffffffffffffffffffffff168460405161112a906120b7565b60006040518083038185875af1925050503d8060008114611167576040519150601f19603f3d011682016040523d82523d6000602084013e61116c565b606091505b50509050806111b0576040517f08c379a00000000000000000000000000000000000000000000000000000000081526004016111a79061224d565b60405180910390fd5b601160019054906101000a900473ffffffffffffffffffffffffffffffffffffffff1673ffffffffffffffffffffffffffffffffffffffff1663731133e93384600e5460126040518563ffffffff1660e01b81526004016112149493929190612102565b600060405180830381600087803b15801561122e57600080fd5b505af1158015611242573d6000803e3d6000fd5b5050505060003373ffffffffffffffffffffffffffffffffffffffff168460405161126c906120b7565b60006040518083038185875af1925050503d80600081146112a9576040519150601f19603f3d011682016040523d82523d6000602084013e6112ae565b606091505b50509050806112f2576040517f08c379a00000000000000000000000000000000000000000000000000000000081526004016112e99061222d565b60405180910390fd5b5050505050565b601060009054906101000a90046fffffffffffffffffffffffffffffffff1681565b60108054906101000a90046fffffffffffffffffffffffffffffffff1681565b6007816002811061134b57600080fd5b016000915090505481565b6000670de0b6b3a7640000600d54141561137a57670de0b6b3a7640000905061139b565b611398670de0b6b3a7640000600d546113939190612584565b611684565b90505b90565b600581600281106113ae57600080fd5b016000915090505481565b600080546113c690612670565b80601f01602080910402602001604051908101604052809291908181526020018280546113f290612670565b801561143f5780601f106114145761010080835404028352916020019161143f565b820191906000526020600020905b81548152906001019060200180831161142257829003601f168201915b505050505081565b6000600d54600c541061148f576040517f08c379a0000000000000000000000000000000000000000000000000000000008152600401611486906121ad565b60405180910390fd5b6115a760036001600281106114cd577f4e487b7100000000000000000000000000000000000000000000000000000000600052603260045260246000fd5b0154600560016002811061150a577f4e487b7100000000000000000000000000000000000000000000000000000000600052603260045260246000fd5b01546007600160028110611547577f4e487b7100000000000000000000000000000000000000000000000000000000600052603260045260246000fd5b01546009600160028110611584577f4e487b7100000000000000000000000000000000000000000000000000000000600052603260045260246000fd5b01546115a2611591611356565b600c546115c090919063ffffffff16565b6115d4565b905090565b6000670de0b6b3a764000082069050919050565b60006115cc83836116d3565b905092915050565b60008060006115e2846117bf565b91509150611603856115f586600361185f565b6115c090919063ffffffff16565b61161687836115c090919063ffffffff16565b61162989856115c090919063ffffffff16565b6116598b61164b89670de0b6b3a76400006116449190612584565b600361185f565b6115c090919063ffffffff16565b611663919061252e565b61166d919061252e565b611677919061252e565b9250505095945050505050565b6000816ec097ce7bc90715b34b9f1000000000816116cb577f4e487b7100000000000000000000000000000000000000000000000000000000600052601260045260246000fd5b049050919050565b60008060008019848609848602925082811083820303915050600080670de0b6b3a764000086880991506706f05b59d3b1ffff82119050600083141561175f5780670de0b6b3a76400008581611752577f4e487b7100000000000000000000000000000000000000000000000000000000600052601260045260246000fd5b04019450505050506117b9565b82670de0b6b3a76400001161177357600080fd5b807faccb18165bd6fe31ae1cf318dc5b51eee0e1ba569b88cd74c1773b91fac1066960016204000080600003040186851186030262040000858803041702019450505050505b92915050565b60008061180c836117fe6117e786670de0b6b3a76400006117e09190612584565b600261185f565b6729a2241af62c00006115c090919063ffffffff16565b6115c090919063ffffffff16565b61185661181a85600261185f565b61184886670de0b6b3a76400006118319190612584565b6729a2241af62c00006115c090919063ffffffff16565b6115c090919063ffffffff16565b91509150915091565b600061186b8383611873565b905092915050565b600080600183161161188d57670de0b6b3a764000061188f565b825b9050600182901c91505b60008211156118d3576118ac83846115c0565b925060006001831611156118c7576118c481846115c0565b90505b600182901c9150611899565b92915050565b8260028101928215611908579160200282015b828111156119075782518255916020019190600101906118ec565b5b5090506119159190611a25565b5090565b82805461192590612670565b90600052602060002090601f016020900481019282611947576000855561198e565b82601f1061196057805160ff191683800117855561198e565b8280016001018555821561198e579182015b8281111561198d578251825591602001919060010190611972565b5b50905061199b9190611a25565b5090565b8280546119ab90612670565b90600052602060002090601f0160209004810192826119cd5760008555611a14565b82601f106119e657805160ff1916838001178555611a14565b82800160010185558215611a14579182015b82811115611a135782518255916020019190600101906119f8565b5b509050611a219190611a25565b5090565b5b80821115611a3e576000816000905550600101611a26565b5090565b6000611a55611a5084612408565b6123e3565b90508082856020860282011115611a6b57600080fd5b60005b85811015611a9b5781611a818882611bdb565b845260208401935060208301925050600181019050611a6e565b5050509392505050565b6000611ab8611ab38461242e565b6123e3565b905082815260208101848484011115611ad057600080fd5b611adb84828561262e565b509392505050565b6000611af6611af18461245f565b6123e3565b905082815260208101848484011115611b0e57600080fd5b611b1984828561262e565b509392505050565b600081359050611b3081612a9c565b92915050565b600082601f830112611b4757600080fd5b6006611b54848285611a42565b91505092915050565b600081359050611b6c81612ab3565b92915050565b600082601f830112611b8357600080fd5b8135611b93848260208601611aa5565b91505092915050565b600082601f830112611bad57600080fd5b8135611bbd848260208601611ae3565b91505092915050565b600081359050611bd581612aca565b92915050565b600081359050611bea81612ae1565b92915050565b6000806000806000806000806000806101e08b8d031215611c1057600080fd5b6000611c1e8d828e01611bc6565b9a50506020611c2f8d828e01611b5d565b9950506040611c408d828e01611bdb565b9850506060611c518d828e01611bdb565b9750506080611c628d828e01611b36565b965050610140611c748d828e01611b21565b955050610160611c868d828e01611bdb565b9450506101808b013567ffffffffffffffff811115611ca457600080fd5b611cb08d828e01611b9c565b9350506101a0611cc28d828e01611b21565b9250506101c08b013567ffffffffffffffff811115611ce057600080fd5b611cec8d828e01611b72565b9150509295989b9194979a5092959850565b600060208284031215611d1057600080fd5b6000611d1e84828501611bdb565b91505092915050565b611d30816125ca565b82525050565b611d3f816125b8565b82525050565b611d4e816125dc565b82525050565b6000611d5f826124a5565b611d6981856124bb565b9350611d7981856020860161263d565b611d8281612760565b840191505092915050565b60008154611d9a81612670565b611da481866124bb565b94506001821660008114611dbf5760018114611dd157611e04565b60ff1983168652602086019350611e04565b611dda85612490565b60005b83811015611dfc57815481890152600182019150602081019050611ddd565b808801955050505b50505092915050565b6000611e18826124b0565b611e2281856124d7565b9350611e3281856020860161263d565b611e3b81612760565b840191505092915050565b6000611e536009836124d7565b9150611e5e82612771565b602082019050919050565b6000611e76601d836124d7565b9150611e818261279a565b602082019050919050565b6000611e99602a836124d7565b9150611ea4826127c3565b604082019050919050565b6000611ebc600e836124d7565b9150611ec782612812565b602082019050919050565b6000611edf6017836124d7565b9150611eea8261283b565b602082019050919050565b6000611f026018836124d7565b9150611f0d82612864565b602082019050919050565b6000611f256020836124d7565b9150611f308261288d565b602082019050919050565b6000611f48602d836124d7565b9150611f53826128b6565b604082019050919050565b6000611f6b6019836124d7565b9150611f7682612905565b602082019050919050565b6000611f8e6028836124d7565b9150611f998261292e565b604082019050919050565b6000611fb16019836124d7565b9150611fbc8261297d565b602082019050919050565b6000611fd46000836124cc565b9150611fdf826129a6565b600082019050919050565b6000611ff76023836124d7565b9150612002826129a9565b604082019050919050565b600061201a600c836124d7565b9150612025826129f8565b602082019050919050565b600061203d600f836124d7565b915061204882612a21565b602082019050919050565b6000612060601f836124d7565b915061206b82612a4a565b602082019050919050565b60006120836013836124d7565b915061208e82612a73565b602082019050919050565b6120a2816125e8565b82525050565b6120b181612624565b82525050565b60006120c282611fc7565b9150819050919050565b60006020820190506120e16000830184611d36565b92915050565b60006020820190506120fc6000830184611d27565b92915050565b60006080820190506121176000830187611d36565b61212460208301866120a8565b61213160408301856120a8565b81810360608301526121438184611d8d565b905095945050505050565b60006020820190506121636000830184611d45565b92915050565b600060208201905081810360008301526121838184611d54565b905092915050565b600060208201905081810360008301526121a58184611e0d565b905092915050565b600060208201905081810360008301526121c681611e46565b9050919050565b600060208201905081810360008301526121e681611e69565b9050919050565b6000602082019050818103600083015261220681611e8c565b9050919050565b6000602082019050818103600083015261222681611eaf565b9050919050565b6000602082019050818103600083015261224681611ed2565b9050919050565b6000602082019050818103600083015261226681611ef5565b9050919050565b6000602082019050818103600083015261228681611f18565b9050919050565b600060208201905081810360008301526122a681611f3b565b9050919050565b600060208201905081810360008301526122c681611f5e565b9050919050565b600060208201905081810360008301526122e681611f81565b9050919050565b6000602082019050818103600083015261230681611fa4565b9050919050565b6000602082019050818103600083015261232681611fea565b9050919050565b600060208201905081810360008301526123468161200d565b9050919050565b6000602082019050818103600083015261236681612030565b9050919050565b6000602082019050818103600083015261238681612053565b9050919050565b600060208201905081810360008301526123a681612076565b9050919050565b60006020820190506123c26000830184612099565b92915050565b60006020820190506123dd60008301846120a8565b92915050565b60006123ed6123fe565b90506123f982826126a2565b919050565b6000604051905090565b600067ffffffffffffffff82111561242357612422612731565b5b602082029050919050565b600067ffffffffffffffff82111561244957612448612731565b5b61245282612760565b9050602081019050919050565b600067ffffffffffffffff82111561247a57612479612731565b5b61248382612760565b9050602081019050919050565b60008190508160005260206000209050919050565b600081519050919050565b600081519050919050565b600082825260208201905092915050565b600081905092915050565b600082825260208201905092915050565b60006124f3826125e8565b91506124fe836125e8565b9250826fffffffffffffffffffffffffffffffff03821115612523576125226126d3565b5b828201905092915050565b600061253982612624565b915061254483612624565b9250827fffffffffffffffffffffffffffffffffffffffffffffffffffffffffffffffff03821115612579576125786126d3565b5b828201905092915050565b600061258f82612624565b915061259a83612624565b9250828210156125ad576125ac6126d3565b5b828203905092915050565b60006125c382612604565b9050919050565b60006125d582612604565b9050919050565b60008115159050919050565b60006fffffffffffffffffffffffffffffffff82169050919050565b600073ffffffffffffffffffffffffffffffffffffffff82169050919050565b6000819050919050565b82818337600083830152505050565b60005b8381101561265b578082015181840152602081019050612640565b8381111561266a576000848401525b50505050565b6000600282049050600182168061268857607f821691505b6020821081141561269c5761269b612702565b5b50919050565b6126ab82612760565b810181811067ffffffffffffffff821117156126ca576126c9612731565b5b80604052505050565b7f4e487b7100000000000000000000000000000000000000000000000000000000600052601160045260246000fd5b7f4e487b7100000000000000000000000000000000000000000000000000000000600052602260045260246000fd5b7f4e487b7100000000000000000000000000000000000000000000000000000000600052604160045260246000fd5b6000601f19601f8301169050919050565b7f536f6c64204f75742e0000000000000000000000000000000000000000000000600082015250565b7f746f74616c206d75737420626520612077686f6c65206e756d6265722e000000600082015250565b7f4d696e74696e6720616d6f756e74206d7573742062652067726561746572207460008201527f68616e207a65726f2e2e00000000000000000000000000000000000000000000602082015250565b7f4d61726b657420636c6f7365642e000000000000000000000000000000000000600082015250565b7f4368616e6765207472616e73666572206661696c65642e000000000000000000600082015250565b7f4f776e6572207472616e73666572206661696c65642e2e2e0000000000000000600082015250565b7f456e6474696d65206d7573742062652073657420696e746f206675747572652e600082015250565b7f4e6f6e2d66756e6769626c6520746f6b656e73206d757374206861766520616d60008201527f6f756e742073657420746f203100000000000000000000000000000000000000602082015250565b7f6e206d75737420626520612077686f6c65206e756d6265722e00000000000000600082015250565b7f546f6b656e20636f6e74726163742061646472657373206d757374206265206e60008201527f6f6e2d7a65726f2e000000000000000000000000000000000000000000000000602082015250565b7f6e206d757374206265206c657373207468616e20746f74616c00000000000000600082015250565b50565b7f746f74616c206d7573742062652067726561746572206f7220657175616c203160008201527f6531380000000000000000000000000000000000000000000000000000000000602082015250565b7f63616e6e6f7420696e69742e0000000000000000000000000000000000000000600082015250565b7f436865636b206d73672e76616c75650000000000000000000000000000000000600082015250565b7f4f776e65722061646472657373206d757374206265206e6f6e2d7a65726f2e00600082015250565b7f706f696e7420636f6f726473206e6f74206f6b00000000000000000000000000600082015250565b612aa5816125b8565b8114612ab057600080fd5b50565b612abc816125dc565b8114612ac757600080fd5b50565b612ad3816125e8565b8114612ade57600080fd5b50565b612aea81612624565b8114612af557600080fd5b5056fea264697066735822122059f10777d7ba3ab14f153c9a62fe40592e14dac5e8f3ba15370df65ea80d867564736f6c63430008040033",
  "linkReferences": {},
  "deployedLinkReferences": {}
}